:020000040000FA
:1000000068F1FF1F67010000730100007501000027
:1000100000000000000000000000000000000000E0
:100020000000000000000000000000007701000058
:100030000000000000000000790100007B010000CA
:100040007D0100007D0100007D0100007D010000B8
:100050007D0100007D0100007D0100007D010000A8
:100060007D0100007D0100007D0100007D01000098
:10007000D5030000D7030000D90300007D01000074
:100080007D0100007D0100007D0100007D01000078
:100090007D0100007D0100006D030000A103000050
:1000A0007D0100007D0100007D0100007D01000058
:1000B0007D0100007D0100007D0100007D01000048
:1000C00000F002F800F03EF80CA030C80838241800
:1000D0002D18A246671EAB4654465D46AC4201D180
:1000E00000F030F87E460F3E0FCCB6460126334274
:1000F00000D0FB1AA246AB463343184784050000E4
:10010000A4050000103A02D378C878C1FAD8520783
:1001100001D330C830C101D504680C6070470000BD
:100120000023002400250026103A01D378C1FBD813
:10013000520700D330C100D50B6070471FB51FBDFB
:1001400010B510BD00F0DEF81146FFF7F7FF00F024
:100150003BFA00F0F6F803B4FFF7F2FF03BC00F03F
:10016000FDF8000070470948804709488047094862
:100170000047FEE7FEE7FEE7FEE7FEE7FEE70000DA
:1001800005480649044A064B704700001104000068
:1001900065010000C100000068F0FF1F68F1FF1F4B
:1001A00068F0FF1F002203098B422CD3030A8B4205
:1001B00011D300239C464EE003460B433CD400225F
:1001C00043088B4231D303098B421CD3030A8B4271
:1001D00001D394463FE0C3098B4201D3CB01C01A3F
:1001E000524183098B4201D38B01C01A524143090A
:1001F0008B4201D34B01C01A524103098B4201D3F8
:100200000B01C01A5241C3088B4201D3CB00C01A64
:10021000524183088B4201D38B00C01A52414308DC
:100220008B4201D34B00C01A5241411A00D2014601
:100230005241104670475DE0CA0F00D0494203109A
:1002400000D34042534000229C4603098B422DD3E9
:10025000030A8B4212D3FC22890112BA030A8B4291
:100260000CD3890192118B4208D3890192118B42E0
:1002700004D389013AD0921100E08909C3098B4265
:1002800001D3CB01C01A524183098B4201D38B01A8
:10029000C01A524143098B4201D34B01C01A52414B
:1002A00003098B4201D30B01C01A5241C3088B4290
:1002B00001D3CB00C01A524183088B4201D38B007B
:1002C000C01A5241D9D243088B4201D34B00C01A05
:1002D0005241411A00D20146634652415B1010461A
:1002E00001D34042002B00D54942704763465B1062
:1002F00000D3404201B50020C046C04602BD704751
:1003000070477047754600F025F8AE46050069460F
:100310005346C008C000854618B020B5FFF730FF2F
:1003200060BC00274908B6460026C0C5C0C5C0C588
:10033000C0C5C0C5C0C5C0C5C0C5403D49008D468B
:10034000704710B50446C046C0462046FFF703FF7D
:1003500010BD00000048704708F0FF1F0149182039
:10036000ABBEFEE7260002007047000010B50A4849
:10037000C068C007C00F002806D0084800680028E1
:1003800002D00649086880470348C0680121084335
:100390000149C86010BD00000071034000F0FF1F5C
:1003A00010B50A48C069C007C00F002806D0084829
:1003B0004068002802D00649486880470348C16960
:1003C000012001430148C16110BD000000710340DC
:1003D00000F0FF1F704770477047C26801238B40D1
:1003E0001A43C260704700000000000000000000D7
:1003F00000000000000000000000000000000000FD
:10040000FFFFFFFFFFFFFFFFFFFFFFFFFFFFFEFEFE
:100410001648174988800120487023200870154825
:10042000407820210843134948700020124948624F
:10043000062010490870084640782F2108402021E6
:1004400008430C49487000200C49087000BF094857
:100450000079102108400028F9D000BF0548007934
:100460000C2108400028F9D17047000003E8000083
:100470000020054000400640008004400050064037
:1004800010B582690C780123A3401A4382614A782F
:100490000B789A4043691A4342614A78002A05D191
:1004A00082690C780123A3409A4382618A78012AE9
:1004B00020D1434A904208D1424A92680C780123E5
:1004C000A3401A433F4B9A6014E03D4A40329042A9
:1004D00008D13C4AD2680C780123A3401A43394B17
:1004E000DA6007E0374A12690C780123A3401A4307
:1004F000344B1A61CA78012A61D1314A40329042A4
:1005000014D10A78182A08D0192A0DD12D4A526917
:1005100080231A432B4B5A6107E02A4A5269402331
:100520001A43284B5A6100E000BF00BF244A403202
:10053000904214D10A78002A08D0012A0DD1214A0C
:10054000526920231A431F4B5A6107E01D4A526922
:1005500010231A431B4B5A6100E000BF00BF184A2A
:10056000904214D10A78182A08D0192A0DD1154AB8
:10057000526908231A43134B5A6107E0114A526922
:1005800004231A430F4B5A6100E000BF00BF0C4A1E
:10059000904214D10A780C2A08D00D2A0DD1094AAC
:1005A000526902231A43074B5A6107E0054A526910
:1005B00001231A43034B5A6100E000BF00BF10BD86
:1005C00000F00F400090044008B50024294800784E
:1005D00002210843274908709020887000BF2548F1
:1005E0000079402108400028F9D022484078202195
:1005F00008432049487008460079402108431D49B6
:100600000871092168460170012141700021817043
:1006100069461948FFF734FF0521684601706946AD
:1006200015484030FFF72CFF0021684601706946ED
:1006300011484030FFF724FF1A21684601706946CF
:100640000D48FFF71DFF14E0641C0C492046FFF71E
:10065000A9FD00290DD1002409210748FFF7BDFE9F
:10066000052105484030FFF7B8FE1A210248FFF780
:10067000B4FEE9E70040064000F00F40409C000057
:10068000A006000000F0FF1F0800000004010000A9
:10069000A806000008F0FF1F600100002001000014
:0806A000000000000000000052
:04000005000000C136
:00000001FF
