:020000040000FA
:1000000058F7FF1F67010000730100007501000031
:1000100000000000000000000000000000000000E0
:100020000000000000000000000000007701000058
:10003000000000000000000079010000CD05000074
:100040007D0100007D0100007D0100007D010000B8
:100050007D0100007D0100007D0100007D010000A8
:100060007D0100007D0100007D0100007D01000098
:100070007D010000B9060000BB060000610300001E
:100080007D0100007D0100007D0100007D01000078
:100090007D0100007D01000065050000990500005C
:1000A00089030000110400007D0100007D010000B3
:1000B0007D0100007D0100007D0100007D01000048
:1000C00000F002F800F03EF80CA030C80838241800
:1000D0002D18A246671EAB4654465D46AC4201D180
:1000E00000F030F87E460F3E0FCCB6460126334274
:1000F00000D0FB1AA246AB46334318474C11000010
:100100006C110000103A02D378C878C1FAD85207AF
:1001100001D330C830C101D504680C6070470000BD
:100120000023002400250026103A01D378C1FBD813
:10013000520700D330C100D50B6070471FB51FBDFB
:1001400010B510BD00F0E0F81146FFF7F7FF01F021
:100150004BF800F0F8F803B4FFF7F2FF03BC00F02F
:10016000ADFA0000704709488047094880470948B0
:100170000047FEE7FEE7FEE7FEE7FEE7FEE70000DA
:1001800005480649044A064B704700003D0600003A
:1001900065010000C100000058F6FF1F58F7FF1F5F
:1001A00058F6FF1F7047002203098B422CD3030A25
:1001B0008B4211D300239C464EE003460B433CD4B4
:1001C000002243088B4231D303098B421CD3030A1C
:1001D0008B4201D394463FE0C3098B4201D3CB014C
:1001E000C01A524183098B4201D38B01C01A52417C
:1001F00043098B4201D34B01C01A524103098B4280
:1002000001D30B01C01A5241C3088B4201D3CB006A
:10021000C01A524183088B4201D38B00C01A52414D
:1002200043088B4201D34B00C01A5241411A00D2FD
:1002300001465241104670475DE0CA0F00D0494266
:10024000031000D34042534000229C4603098B42D6
:100250002DD3030A8B4212D3FC22890112BA030A5E
:100260008B420CD3890192118B4208D389019211E0
:100270008B4204D389013AD0921100E08909C30965
:100280008B4201D3CB01C01A524183098B4201D367
:100290008B01C01A524143098B4201D34B01C01A52
:1002A000524103098B4201D30B01C01A5241C308CA
:1002B0008B4201D3CB00C01A524183088B4201D339
:1002C0008B00C01A5241D9D243088B4201D34B0054
:1002D000C01A5241411A00D20146634652415B1096
:1002E000104601D34042002B00D549427047634677
:1002F0005B1000D3404201B50020C046C04602BD9D
:100300007047704770477047754600F025F8AE4655
:10031000050069465346C008C000854618B020B5A0
:10032000FFF72EFF60BC00274908B6460026C0C56F
:10033000C0C5C0C5C0C5C0C5C0C5C0C5C0C5403D9D
:1003400049008D46704710B50446C046C046204659
:10035000FFF701FF10BD000000487047F8F5FF1FD0
:10036000002006E0054909694200054B9952411CED
:10037000C8B2044909788842F4DB704700B00340F2
:1003800028F0FF1F14F0FF1F10B5002414488068E8
:100390000821084000281BD016E01148C0680C2135
:1003A0006143104A5158084000280BD00C2060438C
:1003B000114640188068002804D00C216143891838
:1003C00088688047601CC4B2074800788442E4DB38
:1003D00003488068242108430149886010BD00005B
:1003E00000900740B8F0FF1F15F0FF1FC206D20EA5
:1003F00001219140014A11607047000000E100E0D6
:10040000FFFFFFFFFFFFFFFFFFFFFFFFFFFFFEFEFE
:1004100010B50024144880680821084000281BD02B
:1004200016E01148C0680C216143104A5158084039
:1004300000280BD00C20604311464018806800282B
:1004400004D00C216143891888688047601CC4B2BD
:10045000074800788442E4DB03488068242108438D
:100460000149886010BD000000A00740B8F0FF1FE0
:1004700015F0FF1F10B5002819DA1A4A03071B0FE1
:10048000083B9B089B00D2588307DC0EFF23A34048
:100490009A438B071B0E8407E40EA3401A43114BAB
:1004A0000407240F083CA408A4001A5118E00E4ABF
:1004B00003231B02D21883089B00D2588307DC0E4B
:1004C000FF23A3409A438B071B0E8407E40EA3402F
:1004D0001A43054B032424021B198408A4001A5153
:1004E00010BD00001CED00E000E100E010B50028A8
:1004F00019DA1A4A03071B0F083B9B089B00D258C6
:100500008307DC0EFF23A3409A438B071B0E84074F
:10051000E40EA3401A43114B0407240F083CA4081F
:10052000A4001A5118E00E4A03231B02D2188308B4
:100530009B00D2588307DC0EFF23A3409A438B070E
:100540001B0E8407E40EA3401A43054B0324240228
:100550001B198408A4001A5110BD00001CED00E016
:1005600000E100E010B50A48C068C007C00F0028CD
:1005700006D008480068002802D00649086880476D
:100580000348C068012108430149C86010BD00004C
:10059000007103400CF0FF1F10B50A48C069C00786
:1005A000C00F002806D008484068002802D006493D
:1005B000486880470348C169012001430148C1617F
:1005C00010BD0000007103400CF0FF1F10B500F0DB
:1005D00001F810BD10B5002413480068002809D0A8
:1005E00011480068401E10490860002802D101200F
:1005F0000E4908700E480068401C0D490860084606
:1006000000680C49884202D1002009490860002492
:1006100007E014216143084A881800F073FA601C4F
:10062000C4B2042CF5DB10BD1CF0FF1F20F0FF1F2F
:1006300024F0FF1FFFFFFF7F98F5FF1F16481749A3
:10064000888001204870232008701120000514497B
:1006500048620020134948709620134908701A20F8
:100660001049087000BF0F48007910210840002889
:10067000F9D100BF0B4800790C2108400028F9D1BE
:100680000A48006840080A490860084800684008AD
:10069000084908607047000003E80000002005409A
:1006A00000800440004006400050064000F0FF1F5C
:1006B00004F0FF1F08F0FF1F70477047014600BF9E
:1006C0000020704710B500F0D9F900F035FA00F0BD
:1006D00090F800F002F862B610BD08B5092168462E
:1006E00001700121817041700021C17000F014FB84
:1006F00025216846017000F00FFB1A216846017041
:1007000000F00AFB20216846017000F005FB002084
:1007100000F001F808BD10B50446002C06D0012CED
:1007200011D0022C14D0032C1CD116E00121092079
:1007300000F0F4FB0121252000F0F0FB01211A203C
:1007400000F0ECFB0FE00121092000F0E7FB0AE0DC
:100750000121252000F0E2FB05E001211A2000F034
:10076000DDFB00E000BF00BF10BD10B50446002C4B
:1007700006D0012C0ED0022C10D0032C16D111E083
:10078000092000F0B5FB252000F0B2FB1A2000F094
:10079000AFFB0CE0092000F0ABFB08E0252000F0E7
:1007A000A7FB04E01A2000F0A3FB00E000BF00BF9D
:1007B00010BD70B5002419E02146B031C8B2002147
:1007C00000F0E2F80021084600F0DEF800211020D9
:1007D00000F0DAF8002505E00121002000F0D4F84F
:1007E000681CC5B2802DF7DB601CC4B2082CE3DBAB
:1007F00070BD10B500F08DF801211D2000F08EFBBA
:10080000642000F021F900211D2000F087FB642006
:1008100000F01AF901211D2000F080FB0021AE201C
:1008200000F0B2F80021084600F0AEF800211020D8
:1008300000F0AAF80021402000F0A6F80021812055
:1008400000F0A2F80021CF2000F09EF80021A120A6
:1008500000F09AF80021C82000F096F80021A620A8
:1008600000F092F80021A82000F08EF800213F202F
:1008700000F08AF80021D32000F086F80021084615
:1008800000F082F80021D52000F07EF800218020C1
:1008900000F07AF80021D92000F076F80021F1204C
:1008A00000F072F80021DA2000F06EF8002112202A
:1008B00000F06AF80021DB2000F066F800214020FB
:1008C00000F062F80021202000F05EF800210220F4
:1008D00000F05AF800218D2000F056F80021142075
:1008E00000F052F80021A42000F04EF80021A620CC
:1008F00000F04AF80021AF2000F046F80021AF20B8
:1009000000F042F8FFF755FF0021084600F022F8FA
:1009100010BD08B500216846C170012141703C211D
:1009200001700021817000F0F7F9452168460170DF
:1009300000F0F2F917216846017000F0EDF91D2171
:100940006846017000F0E8F91F216846017000F068
:10095000E3F908BD70B504460D462946B031C8B26A
:10096000002100F011F8F021214009110846103053
:10097000002100F009F82107090F01221143084660
:10098000002100F001F870BD70B504460E46002E3F
:1009900004D001211F2000F0C1FA03E000211F2034
:1009A00000F0BCFA0021172000F0B8FA002518E08A
:1009B00000213C2000F0B2FA80202040002804D022
:1009C0000121452000F0AAFA03E00021452000F0B3
:1009D000A5FA01213C2000F0A1FA6006040E681C73
:1009E000C5B2082DE4DB0121172000F097FA0121A0
:1009F0001F2000F093FA70BD7FB504460E461546E1
:100A0000022C03DD0020C04304B070BDE0000D499E
:100A1000085C012801D1C01EF6E768460470012178
:100A20004170032101720196039500F09BFA0120A9
:100A3000E100044A5054E00011464018456000208F
:100A4000E2E70000E8F5FF1F002800D17047012809
:100A500000D10220074908600021074A117004E014
:100A600005490978012900D100E0F9E700BF00BF7E
:100A7000ECE700001CF0FF1F20F0FF1F70B5002402
:100A800000BF1AE00021142060431A4A8018416018
:100A900014206043801881601420604380184170E6
:100AA0001420604311541420604380180161142005
:100AB000604380180173601CC4B2042CE2DB7D210A
:100AC000C9000D480068FFF76EFB0546681E0B491C
:100AD000884200D90CE0681E094948610321081FBB
:100AE000FFF704FD0020064988610720086100BF68
:100AF00070BD000098F5FF1F00F0FF1FFFFFFF0013
:100B000000E000E010B504466068002812D060687C
:100B1000401E606000280DD10120607020780128FF
:100B200003D1A0686060002060702069002801D0B7
:100B30002069804710BD00001FB500F029F84B2048
:100B4000C0010090012003900C21684641810021E2
:100B50000181C180818069460A4800F0B5FA0A48DF
:100B60000068C0782021084307490968C8700C2034
:100B700001218140054A116000BF0121014800F0B8
:100B80007FFA1FBD00A0064070F3FF1F00E100E0E8
:100B90000A480B4908600B4888600B484860FF20F2
:100BA0000130C8818881002048830883C8828882F8
:100BB00048824862C86108627047000000A0064091
:100BC00070F3FF1F98F4FF1F98F3FF1FFEB5044654
:100BD00000200190002700250026009001214807F1
:100BE00000F03EFA48488069216808434649886118
:100BF00008468068A17908434349886008468068B0
:100C0000617A08434049886008464068A17A0843F1
:100C10003D49486008464068E17A08433A494860DF
:100C2000207A012801D1202005436079012808D1CC
:100C3000402005430F2001218140344A116000BF4C
:100C400000BFE079002805D02F48C0684021084344
:100C50002D49C86027682C48C0682179491EC9B24F
:100C600008432949C860002622E03846F040C00702
:100C7000C00F01900198002813D0F006C00E284341
:100C8000214908600120B04021490A780978491CAF
:100C90001F4B197091001F4A50500098401CC0B261
:100CA000009021790098814200DC03E0701CC6B2FC
:100CB000102EDADB00BF01200004384000280ED0DF
:100CC00010202843104908600121090410480278C7
:100CD0000078401C0E4B187090000E4A11500120F5
:100CE0004004384000280ED01620284306490860EA
:100CF00001214904064802780078401C044B187012
:100D00009000044A1150FEBD00B0034000E100E035
:100D100014F0FF1F58F0FF1FF0B50146002300201C
:100D200000220C786011E206D20E85006D4E7559D6
:100D3000AD6901269640354386006A4FBE59B561BC
:100D400085003E4675596D6901269640B54386007B
:100D5000BE5975614D78002D0DD185003E467559FF
:100D6000AB69012595401E46AE43334685003E469D
:100D70007559AB6115E04D78012D12D18500594EA2
:100D80007559AB69012595402B4385007559AB61B9
:100D9000850075596B69012595402B438500755970
:100DA0006B618D78012D2AD185004E4E75594E4EBE
:100DB000B54207D14D4DAD680126964035434B4EA7
:100DC000B5601CE08500474E7559474E4036B54228
:100DD00007D1464DED68012696403543434EF560F8
:100DE0000DE085003F4E75593F4E8036B54206D125
:100DF0003E4D2D690126964035433C4E3561CD78F8
:100E0000012D6DD18500374E7559374E4036B542AC
:100E100014D10D78382D08D0392D0DD1334D6D6991
:100E200080263543314E756107E0304D6D694026AF
:100E300035432E4E756100E000BF00BF8500294E8E
:100E40007559294E4036B54214D10D78202D08D061
:100E5000212D0DD1254D6D6920263543234E756119
:100E600007E0224D6D6910263543204E756100E084
:100E700000BF00BF85001B4E75591B4EB54214D1F3
:100E80000D78182D08D0192D0DD1184D6D69082633
:100E90003543164E756107E0144D6D6904263543E0
:100EA000124E756100E000BF00BF85000D4E755900
:100EB0000D4EB54214D10D780C2D08D00D2D0DD14D
:100EC0000A4D6D6902263543084E756107E0074DEE
:100ED0006D6901263543054E756100E000BF00BF16
:100EE000F0BD00003C12000000F00F4000900440F4
:100EF00070B50021002302465111D306DB0E8C0091
:100F0000054D2C59E46801259D402C438D00024E6F
:100F10007559EC6070BD00003C120000F0B50A4647
:100F20000021002304466111E306DB0E002A0BD1E9
:100F30008D000B4E7559AD6801269E4035438E00DD
:100F4000074FBE59B5600AE08D00054E75596D68B2
:100F500001269E4035438E00014FBE597560F0BD9D
:100F60003C12000070B5044600250121022000F06B
:100F700077F83748006802218843354908607D21A9
:100F8000C90034480068FFF70EF961684843054618
:100F90003148217809014550217809014018C1687C
:100FA000012001432C48227812018018C1602A4890
:100FB00021780901401880684108490026482278B4
:100FC0001201801881602448217809014018816845
:100FD00002208143204822781201801881601E4837
:100FE0002178090140188068012108431A492278B4
:100FF0001201891888606078012827D11648217865
:10100000090140188068022108431349227812011F
:101010008918886021788900104AE068505020784B
:10102000002802D0012810D107E01620FFF7DEF9D2
:10103000217A1620FFF71EFA07E01720FFF7D6F9EE
:10104000217A1720FFF716FA00BF00BF70BD00001D
:101050000070034004F0FF1F007103400CF0FF1FFD
:10106000002905D0054A52690243044B5A6104E045
:10107000024A52698243014B5A6170470080044022
:1010800070B504460D460D48844205D1294601201D
:101090000005FFF7E5FF10E00948844205D1294625
:1010A00001204005FFF7DCFF07E00648844204D139
:1010B000294601208005FFF7D3FF70BD00A0064040
:1010C00000B0064000C00640F8B504460D4627486B
:1010D000844204D101210805FFF7C2FF0EE0244835
:1010E000844204D101214805FFF7BAFF06E02148F8
:1010F000844203D101218805FFF7B2FF297B2046F6
:1011000000F03EF8E0780C218843E070A078297A5E
:101110000843A070A07829790843A070A078A97925
:101120000843A070144800680090009A12092B68C8
:101130005B08D0182968FFF736F886B20F48864258
:1011400000DD064620784009400120702078F10437
:10115000C90E084320706670E078A97A0843E070F1
:10116000009908093146FFF71EF8F8BD00A00640B7
:1011700000B0064000C0064004F0FF1FFF1F000043
:10118000012900DD7047134A90420ED1124AD268FD
:10119000CB011A43104BDA60012919D10F4A92682A
:1011A0000C231A430D4B9A6012E00D4A904206D16F
:1011B000094A12690B031A43074B1A6108E0094AEE
:1011C000904205D1044A12694B031A43024B1A613B
:1011D00000BFD7E700A00640008004400090044014
:1011E00000B0064000C006400EB500BF03200090CE
:1011F000022168460171012101724171082181714A
:10120000202141720021C17101218172FFF7DEFCB2
:10121000FFF758FA054AFF2191310120FFF7ECFB57
:1012200003E0FF209130FFF70FFCFAE731120000D6
:1012300010B50220FFF799FA10BD000000F00F4032
:1012400040F00F4080F00F406812000000F0FF1FD8
:1012500028000000040100009012000028F0FF1F89
:10126000300700002001000000B4C404005A6202EC
:10127000005A6202000000000000000000000000B0
:10128000000000000000000000000000000000005E
:04000005000000C136
:00000001FF
