:020000040000FA
:1000000008F4FF1F67010000730100007501000084
:1000100000000000000000000000000000000000E0
:100020000000000000000000000000007701000058
:10003000000000000000000079010000D90300006A
:100040007D0100007D0100007D0100007D010000B8
:100050007D0100007D0100007D0100007D010000A8
:100060007D0100007D0100007D0100007D01000098
:100070007D010000E1030000E30300007D010000BA
:100080007D0100007D0100007D0100007D01000078
:100090007D0100007D010000A503000001050000B6
:1000A00061030000790300007D0100007D01000074
:1000B0007D0100007D0100007D0100007D01000048
:1000C00000F002F800F03EF80CA030C80838241800
:1000D0002D18A246671EAB4654465D46AC4201D180
:1000E00000F030F87E460F3E0FCCB6460126334274
:1000F00000D0FB1AA246AB4633431847940F0000CA
:10010000B40F0000103A02D378C878C1FAD8520769
:1001100001D330C830C101D504680C6070470000BD
:100120000023002400250026103A01D378C1FBD813
:10013000520700D330C100D50B6070471FB51FBDFB
:1001400010B510BD00F0E0F81146FFF7F7FF00F022
:1001500077FF00F0F8F803B4FFF7F2FF03BC00F0FC
:1001600041F900007047094880470948804709481D
:100170000047FEE7FEE7FEE7FEE7FEE7FEE70000DA
:1001800005480649044A064B704700009D050000DB
:1001900065010000C100000008F3FF1F08F4FF1F05
:1001A00008F3FF1F7047002203098B422CD3030A78
:1001B0008B4211D300239C464EE003460B433CD4B4
:1001C000002243088B4231D303098B421CD3030A1C
:1001D0008B4201D394463FE0C3098B4201D3CB014C
:1001E000C01A524183098B4201D38B01C01A52417C
:1001F00043098B4201D34B01C01A524103098B4280
:1002000001D30B01C01A5241C3088B4201D3CB006A
:10021000C01A524183088B4201D38B00C01A52414D
:1002200043088B4201D34B00C01A5241411A00D2FD
:1002300001465241104670475DE0CA0F00D0494266
:10024000031000D34042534000229C4603098B42D6
:100250002DD3030A8B4212D3FC22890112BA030A5E
:100260008B420CD3890192118B4208D389019211E0
:100270008B4204D389013AD0921100E08909C30965
:100280008B4201D3CB01C01A524183098B4201D367
:100290008B01C01A524143098B4201D34B01C01A52
:1002A000524103098B4201D30B01C01A5241C308CA
:1002B0008B4201D3CB00C01A524183088B4201D339
:1002C0008B00C01A5241D9D243088B4201D34B0054
:1002D000C01A5241411A00D20146634652415B1096
:1002E000104601D34042002B00D549427047634677
:1002F0005B1000D3404201B50020C046C04602BD9D
:100300007047704770477047754600F025F8AE4655
:10031000050069465346C008C000854618B020B5A0
:10032000FFF72EFF60BC00274908B6460026C0C56F
:10033000C0C5C0C5C0C5C0C5C0C5C0C5C0C5403D9D
:1003400049008D46704710B50446C046C046204659
:10035000FFF701FF10BD000000487047A8F2FF1F23
:100360000448806803488068242108430149886064
:10037000704700000090074070470000C206D20E90
:1003800001219140014A11607047000080E100E0C6
:10039000C206D20E01219140014A1160704700004F
:1003A00000E100E010B50A48C068C007C00F00288F
:1003B00006D008480068002802D00649086880472F
:1003C0000348C068012108430149C86010BD00000E
:1003D000007103400CF0FF1F10B500F0ABF810BD2A
:1003E00070477047014600BF0020704710B50120DC
:1003F00000F065F910BD10B5022000F060F910BDE5
:10040000FFFFFFFFFFFFFFFFFFFFFFFFFFFFFEFEFE
:1004100010B5002819DA1A4A03071B0F083B9B087E
:100420009B00D2588307DC0EFF23A3409A438B071F
:100430001B0E8407E40EA3401A43114B0407240F3C
:10044000083CA408A4001A5118E00E4A03231B021A
:10045000D21883089B00D2588307DC0EFF23A340E9
:100460009A438B071B0E8407E40EA3401A43054BE7
:10047000032424021B198408A4001A5110BD000093
:100480001CED00E000E100E010B5002819DA1A4A7E
:1004900003071B0F083B9B089B00D2588307DC0E09
:1004A000FF23A3409A438B071B0E8407E40EA3404F
:1004B0001A43114B0407240F083CA408A4001A5146
:1004C00018E00E4A03231B02D21883089B00D2585F
:1004D0008307DC0EFF23A3409A438B071B0E840780
:1004E000E40EA3401A43054B032424021B1984087D
:1004F000A4001A5110BD00001CED00E000E100E076
:1005000010B50A48C069C007C00F002806D00848C7
:100510004068002802D00649486880470348C169FE
:10052000012001430148C16110BD0000007103407A
:100530000CF0FF1F10B5002413480068002809D0F4
:1005400011480068401E10490860002802D10120AF
:100550000E4908700E480068401C0D4908600846A6
:1005600000680C49884202D1002009490860002433
:1005700007E014216143084A881800F089FA601CDA
:10058000C4B2042CF5DB10BD14F0FF1F18F0FF1FE0
:100590001CF0FF1FFFFFFF7F48F2FF1F164817499F
:1005A000888001204870232008701120000514491C
:1005B00048620020134948709620134908701A2099
:1005C0001049087000BF0F4800791021084000282A
:1005D000F9D100BF0B4800790C2108400028F9D15F
:1005E0000A48006840080A4908600848006840084E
:1005F000084908607047000003E80000002005403B
:1006000000800440004006400050064000F0FF1FFC
:1006100004F0FF1F08F0FF1F10B500F0F5F900F01F
:1006200051FA00F090F800F002F862B610BD08B57B
:100630000921684601700121817041700021C1705B
:1006400000F08AFA25216846017000F085FA1A2127
:100650006846017000F080FA20216846017000F0C1
:100660007BFA002000F001F808BD10B50446002C0C
:1006700006D0012C11D0022C14D0032C1CD116E072
:100680000121092000F04EFB0121252000F04AFB4A
:1006900001211A2000F046FB0FE00121092000F0A3
:1006A00041FB0AE00121252000F03CFB05E001218F
:1006B0001A2000F037FB00E000BF00BF10BD10B5EE
:1006C0000446002C06D0012C0ED0022C10D0032C96
:1006D00016D111E0092000F00FFB252000F00CFBE3
:1006E0001A2000F009FB0CE0092000F005FB08E0EF
:1006F000252000F001FB04E01A2000F0FDFA00E0E4
:1007000000BF00BF10BD70B5002419E02146B03114
:10071000C8B2002100F0E2F80021084600F0DEF83F
:100720000021102000F0DAF8002505E0012100206A
:1007300000F0D4F8681CC5B2802DF7DB601CC4B291
:10074000082CE3DB70BD10B500F08DF801211D20F1
:1007500000F0E8FA642000F021F900211D2000F0EB
:10076000E1FA642000F01AF901211D2000F0DAFA04
:100770000021AE2000F0B2F80021084600F0AEF8EB
:100780000021102000F0AAF80021402000F0A6F877
:100790000021812000F0A2F80021CF2000F09EF877
:1007A0000021A12000F09AF80021C82000F096F85E
:1007B0000021A62000F092F80021A82000F08EF879
:1007C00000213F2000F08AF80021D32000F086F8B5
:1007D0000021084600F082F80021D52000F07EF8C4
:1007E0000021802000F07AF80021D92000F076F86E
:1007F0000021F12000F072F80021DA2000F06EF8FC
:100800000021122000F06AF80021DB2000F066F8D9
:100810000021402000F062F80021202000F05EF866
:100820000021022000F05AF800218D2000F056F837
:100830000021142000F052F80021A42000F04EF80E
:100840000021A62000F04AF80021AF2000F046F871
:100850000021AF2000F042F8FFF755FF00210846C5
:1008600000F022F810BD08B500216846C1700121D2
:1008700041703C2101700021817000F06DF945212B
:100880006846017000F068F917216846017000F0B1
:1008900063F91D216846017000F05EF91F2168466A
:1008A000017000F059F908BD70B504460D4629469F
:1008B000B031C8B2002100F011F8F0212140091137
:1008C00008461030002100F009F82107090F012225
:1008D00011430846002100F001F870BD70B50446D0
:1008E0000E46002E04D001211F2000F01BFA03E069
:1008F00000211F2000F016FA0021172000F012FA44
:10090000002518E000213C2000F00CFA8020204057
:10091000002804D00121452000F004FA03E0002162
:10092000452000F0FFF901213C2000F0FBF96006B2
:10093000040E681CC5B2082DE4DB0121172000F06D
:10094000F1F901211F2000F0EDF970BD7FB50446DB
:100950000E461546022C03DD0020C04304B070BDD6
:10096000E0000D49085C012801D1C01EF6E7684689
:10097000047001214170032101720196039500F07A
:10098000F5F90120E100044A5054E00011464018F6
:1009900045600020E2E7000098F2FF1F002800D128
:1009A0007047012800D10220074908600021074A4A
:1009B000117004E005490978012900D100E0F9E748
:1009C00000BF00BFECE7000014F0FF1F18F0FF1F8E
:1009D00010B50446022C02DD0020C04310BDE0002B
:1009E0000849085C002801D1801EF7E7204600F086
:1009F0003BFA0020E100034A5054E10089184860A6
:100A000000BFEBE798F2FF1F70B5002400BF1AE0AB
:100A10000021142060431A4A80184160142060436A
:100A20008018816014206043801841701420604356
:100A30001154142060438018016114206043801811
:100A40000173601CC4B2042CE2DB7D21C9000D4897
:100A50000068FFF7A8FB0546681E0B49884200D9CD
:100A60000CE0681E094948610321081FFFF70CFDCF
:100A70000020064988610720086100BF70BD0000A2
:100A800048F2FF1F00F0FF1FFFFFFF0000E000E043
:100A900010B504466068002812D06068401E60608F
:100AA00000280DD1012060702078012803D1A068B2
:100AB0006060002060702069002801D020698047B4
:100AC00010BD00001FB500F029F84B20C0010090B8
:100AD000012003900C216846418100210181C180E1
:100AE000818069460A4800F01BFA0A480068C0780D
:100AF0002021084307490968C8700C200121814062
:100B0000054A116000BF0121014800F0E5F91FBD51
:100B100000A0064020F0FF1F00E100E00A480B495A
:100B200008600B4888600B484860FF200130C8818E
:100B30008881002048830883C8828882488248626E
:100B4000C86108627047000000A0064020F0FF1F47
:100B500048F1FF1F48F0FF1F70B50146002000223A
:100B60000B785811DA06D20E8400604D2C59A46916
:100B7000012595402C4385005C4E7559AC6184007D
:100B800035462C5964694D7895402C43850075593C
:100B90006C614C78002C09D1840035462C59A4692D
:100BA00001259540AC4385007559AC618C78012CCA
:100BB0002AD184004D4D2C594D4DAC4207D14D4C9E
:100BC000A468012595402C434A4DAC601CE084008C
:100BD000464D2C59464D4035AC4207D1454CE46852
:100BE000012595402C43434DEC600DE084003F4DC2
:100BF0002C593F4D8035AC4206D13E4C246901252D
:100C000095402C433B4D2C61CC78012C6DD1840058
:100C1000364D2C59364D4035AC4214D10C78382C19
:100C200008D0392C0DD1334C646980252C43314DCB
:100C30006C6107E02F4C646940252C432D4D6C619D
:100C400000E000BF00BF8400284D2C59284D4035DE
:100C5000AC4214D10C78202C08D0212C0DD1254C7D
:100C6000646920252C43234D6C6107E0214C6469A5
:100C700010252C431F4D6C6100E000BF00BF8400B5
:100C80001A4D2C591A4DAC4214D10C78182C08D09E
:100C9000192C0DD1174C646908252C43154D6C6136
:100CA00007E0144C646904252C43124D6C6100E08C
:100CB00000BF00BF84000D4D2C590D4DAC4214D126
:100CC0000C780C2C08D00D2C0DD10A4C646902252F
:100CD0002C43084D6C6107E0064C646901252C43E8
:100CE000044D6C6100E000BF00BF70BD84100000C7
:100CF00000F00F400090044070B500210023024630
:100D00005111D306DB0E8C00054D2C59E4680125EA
:100D10009D402C438D00024E7559EC6070BD000063
:100D200084100000F0B50A4600210023044661113A
:100D3000E306DB0E002A0BD18D000B4E7559AD6812
:100D400001269E4035438E00074FBE59B5600AE02C
:100D50008D00054E75596D6801269E4035438E0005
:100D6000014FBE597560F0BD8410000070B5044697
:100D700000250121022000F09FF837480068022179
:100D80008843354908607D21C90034480068FFF771
:100D90000AFA6168484305463148217809014550FF
:100DA000217809014018C168012001432C482278AC
:100DB00012018018C1602A48217809014018806812
:100DC0004108490026482278120180188160244891
:100DD0002178090140188168022081432048227847
:100DE0001201801881601E4821780901401880682E
:100DF000012108431A492278120189188860607815
:100E0000012827D11648217809014018806802215D
:100E100008431349227812018918886021788900D3
:100E2000104AE06850502078002802D0012810D1E4
:100E300007E01620FFF7ACFA217A1620FFF7E8FA50
:100E400007E01720FFF7A4FA217A1720FFF7E0FA4E
:100E500000BF00BF70BD00000070034004F0FF1F22
:100E6000007103400CF0FF1F10B50446012C00DD9B
:100E700010BD104821014018C068012108430D49E8
:100E800022018918C8600B48210140188068410878
:100E900049000848220180188160002C03D11620E7
:100EA000FFF76CFA04E0012C02D11720FFF766FA75
:100EB00000BFDDE700710340002905D0054A5269F3
:100EC0000243044B5A6104E0024A52698243014BD7
:100ED0005A6170470080044070B504460D460D48C5
:100EE000844205D1294601200005FFF7E5FF10E007
:100EF0000948844205D1294601204005FFF7DCFF5F
:100F000007E00648844204D1294601208005FFF706
:100F1000D3FF70BD00A0064000B0064000C00640F0
:100F2000F8B504460D462748844204D1012108053E
:100F3000FFF7C2FF0EE02448844204D10121480596
:100F4000FFF7BAFF06E02148844203D1012188055A
:100F5000FFF7B2FF297B204600F03EF8E0780C2135
:100F60008843E070A078297A0843A070A078297996
:100F70000843A070A078A9790843A07014480068BD
:100F80000090009A12092B685B08D0182968FFF7B7
:100F90000AF986B20F48864200DD064620784009ED
:100FA000400120702078F104C90E0843207066705B
:100FB000E078A97A0843E070009908093146FFF704
:100FC000F2F8F8BD00A0064000B0064000C00640A0
:100FD00004F0FF1FFF1F0000012900DD7047134AC6
:100FE00090420ED1124AD268CB011A43104BDA60FC
:100FF000012919D10F4A92680C231A430D4B9A60AC
:1010000012E00D4A904206D1094A12690B031A43B5
:10101000074B1A6108E0094A904205D1044A126957
:101020004B031A43024B1A6100BFD7E700A00640EA
:10103000008004400090044000B0064000C006401C
:101040000024FFF7E9FA0D4AC8210020FFF77EFCD3
:101050000B4AFF2191310120FFF778FC0DE0FF20C2
:101060009130FFF79BFC601C84B2142C05DD00203E
:10107000FFF7AEFC0120FFF7ABFCF0E7ED0300004B
:10108000F703000000F00F4040F00F4080F00F40E9
:10109000B010000000F0FF1F20000000040100005D
:1010A000D010000020F0FF1FE80300002001000026
:1010B00000B4C404005A6202005A62020000000038
:1010C0000000000000000000000000000000000020
:04000005000000C136
:00000001FF
