:020000040000FA
:1000000068F1FF1F67010000730100007501000027
:1000100000000000000000000000000000000000E0
:100020000000000000000000000000007701000058
:100030000000000000000000790100007B010000CA
:100040007D0100007D0100007D0100007D010000B8
:100050007D0100007D0100007D0100007D010000A8
:100060007D0100007D0100007D0100007D01000098
:10007000D5030000D7030000D90300007D01000074
:100080007D0100007D0100007D0100007D01000078
:100090007D0100007D0100006D030000A103000050
:1000A0007D0100007D0100007D0100007D01000058
:1000B0007D0100007D0100007D0100007D01000048
:1000C00000F002F800F03EF80CA030C80838241800
:1000D0002D18A246671EAB4654465D46AC4201D180
:1000E00000F030F87E460F3E0FCCB6460126334274
:1000F00000D0FB1AA246AB4633431847E00200008B
:1001000000030000103A02D378C878C1FAD8520729
:1001100001D330C830C101D504680C6070470000BD
:100120000023002400250026103A01D378C1FBD813
:10013000520700D330C100D50B6070471FB51FBDFB
:1001400010B510BD00F0DEF81146FFF7F7FF00F024
:1001500097F900F0F6F803B4FFF7F2FF03BC00F0E4
:10016000FDF8000070470948804709488047094862
:100170000047FEE7FEE7FEE7FEE7FEE7FEE70000DA
:1001800005480649044A064B704700001104000068
:1001900065010000C100000068F0FF1F68F1FF1F4B
:1001A00068F0FF1F002203098B422CD3030A8B4205
:1001B00011D300239C464EE003460B433CD400225F
:1001C00043088B4231D303098B421CD3030A8B4271
:1001D00001D394463FE0C3098B4201D3CB01C01A3F
:1001E000524183098B4201D38B01C01A524143090A
:1001F0008B4201D34B01C01A524103098B4201D3F8
:100200000B01C01A5241C3088B4201D3CB00C01A64
:10021000524183088B4201D38B00C01A52414308DC
:100220008B4201D34B00C01A5241411A00D2014601
:100230005241104670475DE0CA0F00D0494203109A
:1002400000D34042534000229C4603098B422DD3E9
:10025000030A8B4212D3FC22890112BA030A8B4291
:100260000CD3890192118B4208D3890192118B42E0
:1002700004D389013AD0921100E08909C3098B4265
:1002800001D3CB01C01A524183098B4201D38B01A8
:10029000C01A524143098B4201D34B01C01A52414B
:1002A00003098B4201D30B01C01A5241C3088B4290
:1002B00001D3CB00C01A524183088B4201D38B007B
:1002C000C01A5241D9D243088B4201D34B00C01A05
:1002D0005241411A00D20146634652415B1010461A
:1002E00001D34042002B00D54942704763465B1062
:1002F00000D3404201B50020C046C04602BD704751
:1003000070477047754600F025F8AE46050069460F
:100310005346C008C000854618B020B5FFF730FF2F
:1003200060BC00274908B6460026C0C5C0C5C0C588
:10033000C0C5C0C5C0C5C0C5C0C5403D49008D468B
:10034000704710B50446C046C0462046FFF703FF7D
:1003500010BD00000048704708F0FF1F0149182039
:10036000ABBEFEE7260002007047000010B50A4849
:10037000C068C007C00F002806D0084800680028E1
:1003800002D00649086880470348C0680121084335
:100390000149C86010BD00000071034000F0FF1F5C
:1003A00010B50A48C069C007C00F002806D0084829
:1003B0004068002802D00649486880470348C16960
:1003C000012001430148C16110BD000000710340DC
:1003D00000F0FF1F7047704770470000D404000012
:1003E00000F0FF1F0800000004010000DC04000012
:1003F00008F0FF1F60010000200100000000000065
:10040000FFFFFFFFFFFFFFFFFFFFFFFFFFFFFEFEFE
:100410001648174988800120487023200870154825
:10042000407820210843134948700020124948624F
:10043000062010490870084640782F2108402021E6
:1004400008430C49487000200C49087000BF094857
:100450000079102108400028F9D000BF0548007934
:100460000C2108400028F9D17047000003E8000083
:100470000020054000400640008004400050064037
:100480000024124800780221084310490870902087
:10049000887000BF0D480079402108400028F9D03D
:1004A0000A484078202108430849487008460079E6
:1004B000402108430549087107E0641C04492046AF
:1004C000FFF770FE002900D10024F6E70040064047
:0C04D000409C0000000000000000000044
:04000005000000C136
:00000001FF
