:020000040000FA
:10000000F8F5FF1F630200006F020000710200009C
:1000100000000000000000000000000000000000E0
:10002000000000000000000000000000730200005B
:100030000000000000000000750200005D170000D5
:1000400079020000790200007902000079020000C4
:1000500079020000790200007902000079020000B4
:1000600079020000790200007902000079020000A4
:100070004D1800005D1800005F18000079020000B4
:100080007902000079020000790200007902000084
:100090007902000079020000F5160000291700001F
:1000A0007902000079020000790200007902000064
:1000B0007902000079020000790200007902000054
:1000C00000F002F800F0BDF80CA030C80838241881
:1000D0002D18A246671EAB4654465D46AC4201D180
:1000E00000F0AFF87E460F3E0FCCB64601263342F5
:1000F00000D0FB1AA246AB4633431847C01D000090
:10010000E01D0000103A02D378C878C1FAD852072F
:1001100001D330C830C101D504680C6070470000BD
:100120000023002400250026103A01D378C1FBD813
:10013000520700D330C100D50B60704710B56E294F
:1001400002D100F012FA10BD702902D100F04BFB71
:1001500010BD662902D101F03DFE10BD652902D116
:1001600001F038FE10BD672902D101F033FE10BD49
:10017000612902D1C046C04610BD03681B0A01D3E5
:1001800080231943692902D100F004F910BD6429C4
:1001900002D100F0FFF810BD752902D100F0FAF885
:1001A00010BD6F2902D100F0C9FA10BD782902D123
:1001B00000F006FB10BDE92902D100F065FA10BD80
:1001C000E42902D100F060FA10BDF52902D100F057
:1001D0005BFA10BDEF2902D100F0BCFA10BDF8297E
:1001E00002D100F0FBFA10BD0368DB0901D38023C4
:1001F0001943632902D100F072FE10BD732902D1A8
:1002000000F075FE10BDE32902D100F07FFE10BDA5
:10021000F32902D100F082FE10BD002010BD1FB5F1
:1002200000F0DCFE04000020002101F0BDFD401CB8
:1002300060600020002101F0A1FDE0601FBD10B54D
:1002400010BD00F0A3FE1146FFF7E9FF01F082FDAB
:1002500001F0C4F903B4FFF7F2FF03BC01F035FB72
:100260007047094880470948804709480047FEE72A
:10027000FEE7FEE7FEE7FEE7FEE700000548064969
:10028000044A064B70470000CD17000061020000D1
:10029000C1000000F8F4FF1FF8F5FF1FF8F4FF1F7E
:1002A000704700001CB50C46064B7B446946009025
:1002B000204600F072F904460020694600F080F9FB
:1002C00020461CBD130300007047704770477047FD
:1002D00070B5044685690068C10601D5302600E086
:1002E0002026C00707D070BD62683046A1689047DD
:1002F000206A401C20626D1EF6D570BD70B50446A4
:1003000085690078C00707D170BD6268A1682020A8
:100310009047206A401C20626D1EF6D570BD0968AA
:100320004A0501D540B27047C905FCD500B27047F7
:1003300009684A0501D5C0B27047C905FCD580B22D
:10034000704770B50C460546012A05D0287880060E
:1003500000D5EA69002302E0012305E05B1C93421B
:1003600002D2E05C0028F9D1A869E618C01AA86199
:10037000286AC01828622846FFF7AAFF04E06A68C6
:100380002078A968641C9047B442F8D32846FFF748
:10039000B5FF70BDF7B5002575291068009914A642
:1003A00011D0FFF7BCFF002802DA404211A608E096
:1003B000009909688A0701D50FA602E0490704D50C
:1003C0000EA6012501E0FFF7B3FF009F00242437AC
:1003D00004E000F0C7FD30313955641C0028F8D125
:1003E0002B4632462146009800F00BFBFEBD000074
:1003F000000000002D0000002B0000002000000085
:10040000FFFFFFFFFFFFFFFFFFFFFFFFFFFFFEFEFE
:10041000002203098B422CD3030A8B4211D3002301
:100420009C464EE003460B433CD4002243088B42DB
:1004300031D303098B421CD3030A8B4201D3944668
:100440003FE0C3098B4201D3CB01C01A524183095B
:100450008B4201D38B01C01A524143098B4201D315
:100460004B01C01A524103098B4201D30B01C01A40
:100470005241C3088B4201D3CB00C01A52418308BA
:100480008B4201D38B00C01A524143088B4201D3E7
:100490004B00C01A5241411A00D201465241104647
:1004A00070475DE0CA0F00D04942031000D34042BC
:1004B000534000229C4603098B422DD3030A8B42F2
:1004C00012D3FC22890112BA030A8B420CD3890190
:1004D00092118B4208D3890192118B4204D3890176
:1004E0003AD0921100E08909C3098B4201D3CB01B4
:1004F000C01A524183098B4201D38B01C01A524169
:1005000043098B4201D34B01C01A524103098B426C
:1005100001D30B01C01A5241C3088B4201D3CB0057
:10052000C01A524183088B4201D38B00C01A52413A
:10053000D9D243088B4201D34B00C01A5241411A11
:1005400000D20146634652415B10104601D340423F
:10055000002B00D54942704763465B1000D34042F0
:1005600001B50020C046C04602BD11680268006A9D
:10057000530501D5087009E0D30501D5088005E0D1
:10058000130602D5C21705C100E0086001207047BC
:1005900001694A1C02610878704700B58FB002916A
:1005A0000021059105490193794403911146049076
:1005B000684600F025F90FB000BD0000E5FFFFFF21
:1005C0000A681070521C0A6070470000F7B50446B4
:1005D000154686B02B487844002703C83E46009055
:1005E000019111E007986A467100415A02A800F093
:1005F00099FC411C07D02178890603D5E269391896
:1006000091420ED83F18761C2078800602D5E0690A
:10061000B84206DDAE42E5DB07987100405A00287B
:10062000E0D1A069C01BA0612046FFF751FE15482C
:1006300078445A3803C800900020019116E0410028
:100640006A460798415A02A800F06CFC0590401CCD
:100650000AD0002505E0626802A8A168405D9047C5
:100660006D1C05988542F6D30498401CB042049056
:10067000E5DB206AC01920622046FFF73FFE09B083
:10068000F0BD00000A180000F7B5D21D0025D20801
:1006900015A6D200F52905CA11D0002A05DA0021D5
:1006A0004042914111A60A4608E0009909688B076B
:1006B00001D50FA602E0490701D50EA60125114676
:1006C000009F0024243704E000F05EF930323A55F0
:1006D000641C02460A43F7D12B4632462146009855
:1006E00000F08FF9FEBD0000000000002D000000AA
:1006F0002B0000002000000070B5044600212434C7
:1007000008E05507D2086D0F303565545D072A4360
:10071000DB08491C15461D43F3D10468002310A2D1
:10072000250708D520252C400C4304D0C46901239B
:100730000CA2641EC46100F064F970BD10B50446DB
:1007400021461068FFF7F4FD002302462046FFF71C
:10075000D3FF10BDD21DD108C9000CC9CCE70000E1
:100760000000000030000000F8B50F4601880905C0
:1007700002D5224C7C4402E0204C7C440E340546D9
:100780000021243508E016071209360FA65D6E54C5
:100790001E0732431B09491C16461E43F3D122464D
:1007A00004780023240705D5702F06D0002901D036
:1007B0000223113200F025F9F8BD01231032F9E7C8
:1007C00070B504460D4621461068FFF7B1FD0023C1
:1007D000024629462046FFF7C7FF70BDD21DD30849
:1007E000DB000CCBC0E730B403682024126823433D
:1007F00003600823C36130BC0023B5E77416000012
:10080000F3B50446002081B020622046E1688847A5
:10081000002872D0252802D06268A168ABE0594F49
:1008200000267F442046E16888472028054608DBEB
:10083000312D06D2781920380078002801D00643DF
:10084000F0E7B00701D5042086430020E0610746A9
:10085000A0612A2D0AD0284601F030F8002827D0C0
:10086000B8000019303D0090856119E00298BA0087
:10087000121902C8916102902046E1688847012F51
:10088000054617D1E06900281FDA202086431CE0C6
:1008900000980A21806948430099401930388861DE
:1008A0002046E1688847054601F008F80028EFD1A6
:1008B000012F0AD02E2D08D12046E1688847054631
:1008C000202006437F1C022FC3DBA069002803DA27
:1008D0004042A06101200643F00701D0102086436A
:1008E0006C2D0BD0682D09D04C2D3CD06A2D38D002
:1008F000742D38D07A2D36D016E040E0E1682F46CE
:1009000020468847B842054609D16C2F29D00120DE
:100910008002E168064320468847054604E06C2FC4
:100920001DD0FF2001300643002D28D02846413835
:10093000192803D80120C00206432035204626602E
:100940002946029A1646FFF7F9FB002810D0012825
:100950000BD0F61DF008C0000830029055E740208B
:10096000E1E78020D5E70020D3E7361D02964CE76B
:1009700062682846A1689047206A401C44E7206AC4
:10098000FEBD0000EE1500000B4670B5024689075B
:100990008008084319469D08141AA941250908072B
:1009A000054308092C194841250A01060D43010A8F
:1009B0002C194141200C0D0428430D0C00194D4108
:1009C000002140194D41C00869070843E908840F18
:1009D0008D002543840024184D4124196D41121BBC
:1009E000AB4107E00925ED432C1152196341002466
:1009F000401C61411C460A250026551BB441F1D21A
:100A000070BDFFB504460D4681B0243000902168CA
:100A1000880604D51022E0699143216000E001209E
:100A2000A84201DD471B00E000270498A1697A195C
:100A30001018081AA0612078C00602D42046FFF7DB
:100A400047FC002608E003986268A168805D904733
:100A5000206A401C761C206204988642F3DB2078D2
:100A6000C0060AD52046FFF733FC06E06268A1689D
:100A700030209047206A401C206238467F1E0028A4
:100A8000F4DC07E000986268A168405D9047206A46
:100A9000401C206228466D1E0028F3DC2046FFF72C
:100AA0002DFC2078000602D5022005B0F0BD012003
:100AB000FBE700007047FFB50C461E468FB003CA27
:100AC000089009914F007D0D00D16D1E0021084650
:100AD0000020C0460321099A89050840002A03DA4C
:100AE0008200801840080840800D01280A9002DD2D
:100AF0000020C0430A90089807430DD0EF48F04902
:100B0000281848430714189800281DD07542291E3C
:100B10001DDD0A9842421BE01898012802D00020EF
:100B2000302104E00020F24305E02154401CB04293
:100B3000FBDB30460022189B002121540F998B606B
:100B40000A60486013B0F0BDBD1B6D1CDFE70A9A58
:100B5000002900DA69420BA800F088FA0BAB07CB3A
:100B600003AB07C30899099800F0E4FA6B4607C382
:100B70000146D4480918002D00910ADDD149039897
:100B80000A9A4942401803A90390684600F0F7FC0E
:100B900007E003990A9A081803A90390684600F031
:100BA000C4FC6B4607C30004000C03D00020C04304
:100BB000410800E01046189A002A03D00022009253
:100BC00015461EE0751E05D4FFF7DEFE3032625575
:100BD0006D1EF9D501220843079602D000227F1C22
:100BE00004E02078302801D100227F1E002A0697D9
:100BF00089D01EE0112D07DAFFF7C6FE30326255AC
:100C00006D1C02460A43F5D1084303D00098002822
:100C100019D00EE00021681E05E0235C625C63547D
:100C20002254401E491C8142F7DBA81B401E079539
:100C30000690079A18990020A0540F98079B069ACF
:100C400081600CC07EE71126002018905BE7D21D62
:100C5000F0B50D460446D10893B0C90003C90C9005
:100C60000D9100F015FE02460D98C00F01D02D2009
:100C700007E02068810701D52B2002E04007C00F64
:100C80004001032A0F9001D0072A05DB03462946BD
:100C9000204600F0A7F90EE12078800601D5E7692B
:100CA00000E006272846652D04D0662814D0672D5D
:100CB00069D12DE00020112F009001DB112300E00D
:100CC0007B1C0CAA03A910A8FFF7F5FE11990026BA
:100CD00010987D1C0E9142E001203B460CAAC007F3
:100CE0000B900120009003A910A8FFF7E4FE119DCE
:100CF00012981099002600280E9501D1781C0D1825
:100D0000781B02D446427D1C761EE81B00903AE018
:100D1000012F00DA01270020112F009001DD11239F
:100D200000E03B460CAA03A910A8FFF7C4FE1199E6
:100D30003D46109800260E91217809070BD40E9994
:100D4000A94200DA0D4603A9012D04DD4A19203A13
:100D5000D27F302A06D0B84201DA011D04DA01211F
:100D600000910FE06D1EEFE7002802DC86192D1AB6
:100D700003E0411CA94200DD0D46801B401C009091
:100D80000120C0070B902078000705D40098A842E6
:100D900002DB0020C043009069460020C8720B9817
:100DA000012102AF0337C907884225D002201090E5
:100DB0002B2011900B9800280BDA40420B902D202D
:100DC000119006E00B9800F0CDF830317F1E0B90AB
:100DD00039701099481E00291090F3DC0B980028F8
:100DE000F0D111987F1E38702088000501D545206C
:100DF00000E065207F1E387001A8C01BC01D0B904D
:100E00000F98002800D0012041190098C017091838
:100E10000B980818A169081A401EA0612078C00626
:100E200002D42046FFF754FA0F98002805D06268D4
:100E3000A1689047206A401C20622078C00625D512
:100E40002046FFF745FA21E0002E07DB0E98B0425E
:100E500004DD03A86268805DA16802E06268A168A1
:100E600030209047206A761C401C20620098401E6B
:100E7000002800900AD100F0B1F8C06862680168EB
:100E8000405CA1689047206A401C206228466D1E85
:100E90000028D9DC07E062683878A1687F1C904799
:100EA000206A401C20620B99481E00290B90F2DC3E
:100EB0002046FFF723FA032044E6000001FCFFFF71
:100EC000104D0000E1DFFFFF10B54369002B02D099
:100ED000C046C04601E0FFF734FA012010BD127889
:100EE000014624310A7000224A700122ECE71168A1
:100EF0000022D243E8E710B54369002B02D0C04678
:100F0000C04601E0FFF762FB012010BD12880146D8
:100F1000243182840022C2840122ECE7116800227D
:100F2000D243E8E770B516460C46054600F04EF889
:100F30000368FF200230C05C012807D0FF2C0ED8C8
:100F4000185D00280BD001202C7070BDFF33324695
:100F5000214608331868C3182846984770BD0020FA
:100F6000C04370BD01468008081A02091018020A21
:100F70001018020C1018C008820012185200891AAA
:100F800001E0401C0A390A29FBD27047754600F07F
:100F90002DFBAE46050069465346C008C000854695
:100FA00018B020B5FFF76AF960BC00274908B646BB
:100FB0000026C0C5C0C5C0C5C0C5C0C5C0C5C0C568
:100FC000C0C5403D49008D467047000010B500F097
:100FD00005F8001D10BD00BFD10D0000004870478E
:100FE000B8F4FF1FF8B51F46044601230068DB0272
:100FF000032601461840072A05DB002801D017A563
:1010000006E017A504E0002801D016A500E016A50B
:10101000102081432160A069C01E002FA06101D073
:10102000401EA0612046FFF753F9002F09D0384633
:101030006268A1689047206A401C2062C01C206240
:1010400006E0206AFAE762682878A1686D1C90477C
:10105000761EF8D22046FFF751F9F8BD4E414E00FA
:101060006E616E00494E4600696E6600F7B5164621
:101070008AB02F4878446C4603467C33C06F5A6868
:101080009B680DC42A487844763003AC0DC80DC463
:101090003720C001081837211B30FFF7C3F9054678
:1010A0000C46803D1B3C02D56442012000E000203C
:1010B000002709900FE0E0070BD00C201C49784373
:1010C000794432464C394118684600F02EFA6B4696
:1010D00007C364107F1C002CEDD1154F7F442C3FBB
:1010E00015E0E80711D02001C0190EC80691089339
:1010F00007920068F04201D198190890324606A97B
:1011000003A800F012FA03AB07C36D10641C002D96
:10111000E7D1324669460998002803A802D000F0BA
:101120002EFA01E000F001FA0A9B07C30DB0F0BDF2
:10113000B00D0000034640000A4610B5400D0BD02C
:101140000121C9070F24A40200191C0364082143CC
:10115000540D2143D20207E000210120F2E7D40F11
:10116000490021435200401E0029F8DADB0FDB075B
:10117000184310BDFFB50D46144685B04868516848
:1011800000F06EFB00910190A868A16800F068FB78
:1011900002910390A868616800F062FB029A12183D
:1011A0008242029201D2012000E00020019A0B1835
:1011B000D2180028019202D08A4202D903E08A4262
:1011C00001D2012000E00020009908180090686812
:1011D000A16800F045FB029A12188242029201D2E5
:1011E000012000E00020019A0B18D218002801927B
:1011F00002D08A4202D903E08A4201D2012000E0F3
:1012000000200099081800902868216840004900D3
:10121000400849084018EE49471814E00199400079
:10122000C90F08430090019802994000C90F084374
:101230000190029803994000C90F08430290039857
:1012400040007F1E039000980028E7DA08980028E5
:1012500001D0E04E00E00026B74228DAF71BF8067E
:10126000C00E15D0029B2021091A039A8B401A4305
:101270000392029A019BC2408B401A430292019A48
:10128000009BC2408B4000991A430192C1400091DB
:101290007A110BD06B460320811A01D5002101E0A1
:1012A000890059588700401ED951F5D53746039813
:1012B0000299002800D001200143089802910028DB
:1012C00008460CD0002800D001200199019A490558
:1012D00008430121D20AC902D202019200E0012191
:1012E0000E9B0122D207012B02D0002B03D013E06A
:1012F000002807D116E0904204D890420CD1019BFF
:101300000B4209D0019B5918019105D10099491C44
:10131000009101D17F1C0092002803D010210846C3
:101320000020C04628682168019B009A4840C10FF0
:101330000598C90739430EC009B0F0BDFFB587B0A5
:10134000099A08980899536892684068896896468F
:101350000022039317469446089A12685300099A8C
:101360005B081268520052089A1A9B4BD4180A9ACA
:10137000002A01D0352200E04022069200220123FB
:1013800015460492DB07059324E0002D05D1754630
:101390000346039E4D1BB34109D375466646039B26
:1013A000491B049D9841059B7519AC465F416346F6
:1013B0003B4308D0059B049EDD0776082E435B085F
:1013C0000496059301E0521E641EC50FED074918EF
:1013D0004041521C069B9A42D7DB002D04D1754632
:1013E000039A6B1A824101D203200CE0039A0B4648
:1013F0006B404240134303D0014303D0012002E07D
:10140000022000E000206146019100210097029136
:101410000A99002905D06146400201436D4B0191B4
:1014200002E08007002302909C423ADA1A1BD006A1
:10143000C00E15D0029D2021019C091AC5408C4088
:101440002543029C8C4000D001242543019C029539
:101450003D46C4408D4039462C43C1400194009123
:1014600054111DD06D460221002202290CD1032007
:10147000001B07E0002804DB8600AE59002E00D0D8
:101480000122401C0328F5DB081B02D588002A50E6
:1014900004E08000285810438A00A850491EE3D574
:1014A0001C460A98002802980CD0002800D0012081
:1014B0000199019A490508430121D20AC902D202C1
:1014C000019200E00121109B0122D207012B02D0E2
:1014D000002B03D013E0002807D116E0904204D877
:1014E00090420CD1019B0B4209D0019B59180191EC
:1014F00005D10099491C009101D1641C009200287B
:1015000003D0102108460020C04608980999019A86
:101510000068096848400099C30F0798DB07234318
:101520000360826041600BB0F0BD1FB500230092E4
:101530000A46014601A8FFF71DFE01AB07CB04B028
:1015400010BD1FB5012300920A46014601A8FFF70E
:1015500011FE01AB0F2407CBA402C30F4000DB0731
:101560004008001B002900DB002049000005490855
:10157000CC0A204349051843D20A1143DFE71FB5BF
:10158000002300920A46014601A8FFF7D7FE01ABEF
:1015900007CBD4E71FB5012300920A46014601A8F4
:1015A000FFF7CCFE01AB0F2407CBA402C30F400012
:1015B000DB074008001B002900DB00204900000574
:1015C0004908CC0A204349051843D20A1143B6E71B
:1015D00002C0FFFF013C0000FF3F000010B50446C1
:1015E000C046C0462046FEF735FE10BD0048704795
:1015F00098F4FF1F024670B50A4392072AD11E4D88
:10160000EE0104C808C9541B9443344017D0D0B22B
:10161000D9B2401A2106014310D190B299B2401AB2
:10162000210401430AD110021902000A090A401AD2
:101630002102014302D1100E190E401A70BD9A42C8
:10164000DFD010BA19BA884201D9012070BD00203C
:10165000C04370BD02780B78401C491C002A09D099
:101660009A4207D102780B78401C491C002A01D00D
:101670009A42EFD0D01A70BD0101010110B50028C7
:1016800019DA1A4A03071B0F083B9B089B00D25824
:101690008307DC0EFF23A3409A438B071B0E8407AE
:1016A000E40EA3401A43114B0407240F083CA4087E
:1016B000A4001A5118E00E4A03231B02D218830813
:1016C0009B00D2588307DC0EFF23A3409A438B076D
:1016D0001B0E8407E40EA3401A43054B0324240287
:1016E0001B198408A4001A5110BD00001CED00E075
:1016F00000E100E010B50A48C068C007C00F00282C
:1017000006D008480068002802D0064908688047CB
:101710000348C068012108430149C86010BD0000AA
:10172000007103400CF0FF1F10B50A48C069C007E4
:10173000C00F002806D008484068002802D006499B
:10174000486880470348C169012001430148C161DD
:1017500010BD0000007103400CF0FF1F10B500F039
:1017600001F810BD10B5002413480068002809D006
:1017700011480068401E10490860002802D101206D
:101780000E4908700E480068401C0D490860084664
:1017900000680C49884202D10020094908600024F1
:1017A00007E014216143084A881800F0F1F8601C32
:1017B000C4B2042CF5DB10BD14F0FF1F18F0FF1F9E
:1017C0001CF0FF1FFFFFFF7F48F4FF1F1748184959
:1017D0008880012048702320087000201549486245
:1017E000154840780007000F1349487094201349AA
:1017F00008701A201049087000BF0F4800791021A6
:1018000008400028F9D100BF0B4800790C2108409E
:101810000028F9D10A48006840080A4908600848C9
:1018200000684008084908607047000003E80000AD
:101830000020054000800440004006400050064063
:1018400000F0FF1F04F0FF1F08F0FF1F10B5024853
:1018500000F0C2F810BD000020F0FF1F7047704775
:10186000F8B5040C8BB2264682B25E43104658434C
:101870000D0C370C360400218019164679416E4351
:10188000370C36048019264679416E438919F8BD14
:101890004900CA020243100000D004204A0D01D0C2
:1018A00001221043044A490D914201D1022108430B
:1018B000012800D105207047FF07000030380A28B2
:1018C00001D20120704700207047014600BF002070
:1018D00070470000002800D17047012800D1022085
:1018E000074908600021074A117004E0054909789A
:1018F000012900D100E0F9E700BF00BFECE70000DC
:1019000014F0FF1F18F0FF1F70B5002400BF1AE08D
:101910000021142060431A4A80184160142060435B
:101920008018816014206043801841701420604347
:101930001154142060438018016114206043801802
:101940000173601CC4B2042CE2DB7D21C9000D4888
:101950000068FEF75DFD0546681E0B49884200D908
:101960000CE0681E094948610321081FFFF786FE45
:101970000020064988610720086100BF70BD000093
:1019800048F4FF1F00F0FF1FFFFFFF0000E000E032
:1019900010B504466068002812D06068401E606080
:1019A00000280DD1012060702078012803D1A068A3
:1019B0006060002060702069002801D020698047A5
:1019C00010BD00000146012901D1024870470020E6
:1019D000FCE7000020F0FF1F70B5044600252068DA
:1019E000007920210840002805D02068C5792946C3
:1019F000204600F0AAF820680079802108400028DD
:101A000020D0A08A00280BD12068C07888432168A4
:101A1000C8702068C078402108432168C87037E04A
:101A2000618A6068405C2168C871608A401C80B22D
:101A30006082A189884201DB00206082A08A401E6A
:101A4000A08225E0206800794021084000281FD0AE
:101A5000A08A00280BD12068C07888432168C8700C
:101A6000206A002814D00020216A884710E0618A8B
:101A70006068405C2168C871608A401C80B26082E6
:101A8000A189884201DB00206082A08A401EA082DA
:101A900070BD00001FB500F021F84B20C001009080
:101AA000002003900C216846418100210181C18002
:101AB00081806946074800F0C7F807480068C07889
:101AC0002021084304490968C8700121014800F039
:101AD00097F81FBD00A0064020F0FF1F0A480B49E1
:101AE00008600B4888600B48486001204002C881AC
:101AF0008881002048830883C8828882488248629F
:101B0000C86108627047000000A0064020F0FF1F77
:101B100048F2FF1F48F0FF1F0FB410B5C2B00024F9
:101B200045A8019002A8019A4499FEF7BBFB84B234
:101B3000224602A9012000F01CF800200190E0B22A
:101B400042B010BC08BC04B01847C38A8268D154A4
:101B5000C28A521C92B2C282C3899A4201DB00221D
:101B6000C282428BC3899A4202DA428B521C428360
:101B70007047F8B506460C4615460022002330464D
:101B8000FFF720FF0246002A00D1F8BD00231DE028
:101B900008E0918A0091918968460088814200DDC1
:101BA00001E000BFF5E700BFE05C178A5168C85547
:101BB000108A401C80B210829189884201DB00208B
:101BC0001082908A401C9082581C83B2AB42DFDBAB
:101BD0001068C078802108431168C87000BFD4E73E
:101BE000002905D0054A52690243044B5A6104E0BA
:101BF000024A52698243014B5A6170470080044097
:101C000070B504460D460D48844205D12946012091
:101C10000005FFF7E5FF10E00948844205D1294699
:101C200001204005FFF7DCFF07E00648844204D1AD
:101C3000294601208005FFF7D3FF70BD00A00640B4
:101C400000B0064000C00640F8B504460D462748DF
:101C5000844204D101210805FFF7C2FF0EE02448A9
:101C6000844204D101214805FFF7BAFF06E021486C
:101C7000844203D101218805FFF7B2FF297B20466A
:101C800000F03EF8E0780C218843E070A078297AD3
:101C90000843A070A07829790843A070A078A9799A
:101CA0000843A070144800680090009A12092B683D
:101CB0005B08D0182968FEF7ABFB86B20F48864256
:101CC00000DD064620784009400120702078F104AC
:101CD000C90E084320706670E078A97A0843E07066
:101CE000009908093146FEF793FBF8BD00A00640B5
:101CF00000B0064000C0064004F0FF1FFF1F0000B8
:101D0000012900DD70470F4A904206D10E4AD26881
:101D1000CB011A430C4BDA6012E00C4A904206D118
:101D2000094A12690B031A43074B1A6108E0084A73
:101D3000904205D1044A12694B031A43024B1A61BF
:101D400000BFDFE700A006400080044000B006406E
:101D500000C00640FFF7D8FDFFF79CFE05E06420B9
:101D6000FFF7B8FD01A0FFF7D7FEF8E748656C6CF8
:101D70006F20576F726C640D0A00000010B50029C7
:101D80000AD00878002807D005487844FFF732FCCD
:101D9000002801D0002010BD0248784410BD00008A
:101DA000520100004A01000010B500290AD008784D
:101DB000002807D005487844FFF71CFC002801D014
:101DC000002010BD0248784410BD00004201000010
:101DD0003A01000003B402487844844603BC6047DB
:101DE00073EEFFFF000000000000000030313233CE
:101DF000343536373839414243444546403058003F
:101E00003031323334353637383961626364656670
:101E100040307800040000080000000000000002CC
:101E2000000100001000000002400000000000A0BF
:101E30000000000005400000000000C80000000095
:101E40000C4000000000409C000000001940000011
:101E50000020BCBE0000000034400000BFC91B8E43
:101E600000000004B5400000504BCFD06607E2CF21
:101E7000010000006C4100003E8251AADFEEA73451
:101E800001000000D9420000DCB5A0E23A301F9703
:101E9000FFFFFFFFB4450000FD25A0C8E9A3C14F27
:101EA000FFFFFFFFFF3F0000000000800000000078
:101EB000FF3F00000000008000000000082000003C
:101EC00000F0FF1F20000000040100002820000097
:101ED00020F0FF1FD8050000200100001C000000BA
:101EE00043000000F8FFFFFF0C0000000E000000A0
:101EF0000F0000002E000000100100004300000051
:101F0000F8FFFFFF0040404040404040404041411A
:101F100041414140404040404040404040404040BE
:101F20004040404040050202020202020202020258
:101F30000202020202202020202020202020200255
:101F400002020202020290909090909010101010E5
:101F50001010101010101010101010101010101081
:101F60000202020202028888888888880808080815
:101F700008080808080808080808080808080808E1
:101F80000202020240000000000000000000000009
:101F90000000000000000000000000000000000041
:101FA0000000000000000000000000000000000031
:101FB0000000000000000000000000000000000021
:101FC0000000000000000000000000000000000011
:101FD0000000000000000000000000000000000001
:101FE00000000000000000000000000000000000F1
:101FF00000000000000000000000000000000000E1
:102000000000000000000000005A6202002D3101B3
:10201000002D310100000000000000000000000061
:082020000000000000000000B8
:04000005000000C136
:00000001FF
